{
  "contractName": "ChipTreasury",
  "abi": [
    {
      "constant": false,
      "inputs": [],
      "name": "unpause",
      "outputs": [],
      "payable": false,
      "stateMutability": "nonpayable",
      "type": "function"
    },
    {
      "constant": true,
      "inputs": [
        {
          "name": "",
          "type": "uint256"
        }
      ],
      "name": "chips",
      "outputs": [
        {
          "name": "hash",
          "type": "bytes32"
        },
        {
          "name": "claimed",
          "type": "bool"
        }
      ],
      "payable": false,
      "stateMutability": "view",
      "type": "function"
    },
    {
      "constant": true,
      "inputs": [],
      "name": "paused",
      "outputs": [
        {
          "name": "",
          "type": "bool"
        }
      ],
      "payable": false,
      "stateMutability": "view",
      "type": "function"
    },
    {
      "constant": true,
      "inputs": [],
      "name": "numChipsClaimed",
      "outputs": [
        {
          "name": "",
          "type": "uint256"
        }
      ],
      "payable": false,
      "stateMutability": "view",
      "type": "function"
    },
    {
      "constant": false,
      "inputs": [],
      "name": "pause",
      "outputs": [],
      "payable": false,
      "stateMutability": "nonpayable",
      "type": "function"
    },
    {
      "constant": true,
      "inputs": [],
      "name": "owner",
      "outputs": [
        {
          "name": "",
          "type": "address"
        }
      ],
      "payable": false,
      "stateMutability": "view",
      "type": "function"
    },
    {
      "constant": false,
      "inputs": [
        {
          "name": "newOwner",
          "type": "address"
        }
      ],
      "name": "transferOwnership",
      "outputs": [],
      "payable": false,
      "stateMutability": "nonpayable",
      "type": "function"
    },
    {
      "constant": true,
      "inputs": [],
      "name": "numChipsMinted",
      "outputs": [
        {
          "name": "",
          "type": "uint256"
        }
      ],
      "payable": false,
      "stateMutability": "view",
      "type": "function"
    },
    {
      "inputs": [],
      "payable": false,
      "stateMutability": "nonpayable",
      "type": "constructor"
    },
    {
      "payable": true,
      "stateMutability": "payable",
      "type": "fallback"
    },
    {
      "anonymous": false,
      "inputs": [
        {
          "indexed": true,
          "name": "sender",
          "type": "address"
        },
        {
          "indexed": false,
          "name": "value",
          "type": "uint256"
        }
      ],
      "name": "Deposit",
      "type": "event"
    },
    {
      "anonymous": false,
      "inputs": [
        {
          "indexed": true,
          "name": "to",
          "type": "address"
        },
        {
          "indexed": false,
          "name": "value",
          "type": "uint256"
        }
      ],
      "name": "Withdrawal",
      "type": "event"
    },
    {
      "anonymous": false,
      "inputs": [
        {
          "indexed": true,
          "name": "to",
          "type": "address"
        },
        {
          "indexed": true,
          "name": "token",
          "type": "address"
        },
        {
          "indexed": false,
          "name": "value",
          "type": "uint256"
        }
      ],
      "name": "TokenWithdrawal",
      "type": "event"
    },
    {
      "anonymous": false,
      "inputs": [
        {
          "indexed": true,
          "name": "chipId",
          "type": "uint256"
        }
      ],
      "name": "ChipMinted",
      "type": "event"
    },
    {
      "anonymous": false,
      "inputs": [
        {
          "indexed": true,
          "name": "sender",
          "type": "address"
        },
        {
          "indexed": true,
          "name": "chipId",
          "type": "uint256"
        }
      ],
      "name": "ChipClaimAttempt",
      "type": "event"
    },
    {
      "anonymous": false,
      "inputs": [
        {
          "indexed": true,
          "name": "sender",
          "type": "address"
        },
        {
          "indexed": true,
          "name": "chipId",
          "type": "uint256"
        }
      ],
      "name": "ChipClaimSuccess",
      "type": "event"
    },
    {
      "anonymous": false,
      "inputs": [],
      "name": "Pause",
      "type": "event"
    },
    {
      "anonymous": false,
      "inputs": [],
      "name": "Unpause",
      "type": "event"
    },
    {
      "anonymous": false,
      "inputs": [
        {
          "indexed": true,
          "name": "previousOwner",
          "type": "address"
        },
        {
          "indexed": true,
          "name": "newOwner",
          "type": "address"
        }
      ],
      "name": "OwnershipTransferred",
      "type": "event"
    },
    {
      "constant": false,
      "inputs": [
        {
          "name": "chipId",
          "type": "uint256"
        },
        {
          "name": "password",
          "type": "string"
        }
      ],
      "name": "claimChip",
      "outputs": [],
      "payable": false,
      "stateMutability": "nonpayable",
      "type": "function"
    },
    {
      "constant": false,
      "inputs": [
        {
          "name": "hash",
          "type": "bytes32"
        }
      ],
      "name": "mintChip",
      "outputs": [],
      "payable": false,
      "stateMutability": "nonpayable",
      "type": "function"
    },
    {
      "constant": false,
      "inputs": [
        {
          "name": "value",
          "type": "uint256"
        }
      ],
      "name": "withdrawFunds",
      "outputs": [],
      "payable": false,
      "stateMutability": "nonpayable",
      "type": "function"
    },
    {
      "constant": false,
      "inputs": [
        {
          "name": "token",
          "type": "address"
        },
        {
          "name": "value",
          "type": "uint256"
        }
      ],
      "name": "withdrawTokens",
      "outputs": [],
      "payable": false,
      "stateMutability": "nonpayable",
      "type": "function"
    },
    {
      "constant": true,
      "inputs": [
        {
          "name": "chipId",
          "type": "uint256"
        }
      ],
      "name": "isClaimed",
      "outputs": [
        {
          "name": "",
          "type": "bool"
        }
      ],
      "payable": false,
      "stateMutability": "view",
      "type": "function"
    },
    {
      "constant": true,
      "inputs": [],
      "name": "getNumChips",
      "outputs": [
        {
          "name": "",
          "type": "uint256"
        }
      ],
      "payable": false,
      "stateMutability": "view",
      "type": "function"
    },
    {
      "constant": true,
      "inputs": [
        {
          "name": "isChipClaimed",
          "type": "bool"
        }
      ],
      "name": "getChipIds",
      "outputs": [
        {
          "name": "",
          "type": "uint256[]"
        }
      ],
      "payable": false,
      "stateMutability": "view",
      "type": "function"
    },
    {
      "constant": true,
      "inputs": [],
      "name": "getChipValue",
      "outputs": [
        {
          "name": "",
          "type": "uint256"
        }
      ],
      "payable": false,
      "stateMutability": "view",
      "type": "function"
    }
  ],
  "bytecode": "0x606060405260008060146101000a81548160ff021916908315150217905550341561002957600080fd5b336000806101000a81548173ffffffffffffffffffffffffffffffffffffffff021916908373ffffffffffffffffffffffffffffffffffffffff1602179055506001600060146101000a81548160ff021916908315150217905550611051806100936000396000f3006060604052600436106100e6576000357c0100000000000000000000000000000000000000000000000000000000900463ffffffff16806306b091f914610140578063155dd5ee14610182578063290c398f146101a55780632bdcd90d1461021f57806330a3ce81146102855780633f4ba83a146102ae57806340d96050146102c35780635a70686a1461030d5780635c975abb1461033457806378160d6b146103615780638456cb591461038a5780638da5cb5b1461039f5780639c8e1d50146103f45780639e34070f1461041d578063f2fde38b14610458578063fb9cb15d14610491575b600034111561013e573373ffffffffffffffffffffffffffffffffffffffff167fe1fffcc4923d04b559f4d29a8bfc6cda04eb5b0d3c460751c2402c5c5cc9109c346040518082815260200191505060405180910390a25b005b341561014b57600080fd5b610180600480803573ffffffffffffffffffffffffffffffffffffffff169060200190919080359060200190919050506104ba565b005b341561018d57600080fd5b6101a3600480803590602001909190505061067a565b005b34156101b057600080fd5b6101c8600480803515159060200190919050506107a8565b6040518080602001828103825283818151815260200191508051906020019060200280838360005b8381101561020b5780820151818401526020810190506101f0565b505050509050019250505060405180910390f35b341561022a57600080fd5b610283600480803590602001909190803590602001908201803590602001908080601f016020809104026020016040519081016040528093929190818152602001838380828437820191505050505050919050506108d4565b005b341561029057600080fd5b610298610a42565b6040518082815260200191505060405180910390f35b34156102b957600080fd5b6102c1610a60565b005b34156102ce57600080fd5b6102e46004808035906020019091905050610b1e565b604051808360001916600019168152602001821515151581526020019250505060405180910390f35b341561031857600080fd5b610332600480803560001916906020019091905050610b4f565b005b341561033f57600080fd5b610347610c5c565b604051808215151515815260200191505060405180910390f35b341561036c57600080fd5b610374610c6f565b6040518082815260200191505060405180910390f35b341561039557600080fd5b61039d610c75565b005b34156103aa57600080fd5b6103b2610d35565b604051808273ffffffffffffffffffffffffffffffffffffffff1673ffffffffffffffffffffffffffffffffffffffff16815260200191505060405180910390f35b34156103ff57600080fd5b610407610d5a565b6040518082815260200191505060405180910390f35b341561042857600080fd5b61043e6004808035906020019091905050610daa565b604051808215151515815260200191505060405180910390f35b341561046357600080fd5b61048f600480803573ffffffffffffffffffffffffffffffffffffffff16906020019091905050610dd7565b005b341561049c57600080fd5b6104a4610f2c565b6040518082815260200191505060405180910390f35b6000809054906101000a900473ffffffffffffffffffffffffffffffffffffffff1673ffffffffffffffffffffffffffffffffffffffff163373ffffffffffffffffffffffffffffffffffffffff1614151561051557600080fd5b8173ffffffffffffffffffffffffffffffffffffffff1663a9059cbb6000809054906101000a900473ffffffffffffffffffffffffffffffffffffffff16836040518363ffffffff167c0100000000000000000000000000000000000000000000000000000000028152600401808373ffffffffffffffffffffffffffffffffffffffff1673ffffffffffffffffffffffffffffffffffffffff16815260200182815260200192505050602060405180830381600087803b15156105d857600080fd5b5af115156105e557600080fd5b50505060405180519050508173ffffffffffffffffffffffffffffffffffffffff166000809054906101000a900473ffffffffffffffffffffffffffffffffffffffff1673ffffffffffffffffffffffffffffffffffffffff167f42856d0378dde02337bb59ae41747abc77ded8ebdbbc5cbdd1e53693b7554938836040518082815260200191505060405180910390a35050565b6000809054906101000a900473ffffffffffffffffffffffffffffffffffffffff1673ffffffffffffffffffffffffffffffffffffffff163373ffffffffffffffffffffffffffffffffffffffff161415156106d557600080fd5b6000809054906101000a900473ffffffffffffffffffffffffffffffffffffffff1673ffffffffffffffffffffffffffffffffffffffff166108fc829081150290604051600060405180830381858888f19350505050151561073657600080fd5b6000809054906101000a900473ffffffffffffffffffffffffffffffffffffffff1673ffffffffffffffffffffffffffffffffffffffff167f7fcf532c15f0a6db0bd6d0e038bea71d30d808c7d98cb3bf7268a95bf5081b65826040518082815260200191505060405180910390a250565b6107b0611011565b6107b8611011565b6000806107c3611011565b6002546040518059106107d35750595b9080825280602002602001820160405250935060009250600091505b600254821015610859576001600083815260200190815260200160002060010160009054906101000a900460ff161515861515141561084c5781848481518110151561083757fe5b90602001906020020181815250506001830192505b81806001019250506107ef565b826040518059106108675750595b90808252806020026020018201604052509050600091505b828210156108c857838281518110151561089557fe5b9060200190602002015181838151811015156108ad57fe5b9060200190602002018181525050818060010192505061087f565b80945050505050919050565b60008060149054906101000a900460ff161515156108f157600080fd5b823373ffffffffffffffffffffffffffffffffffffffff167f22309f59fa3f7ccfac0b04bf4e51ff43c9ea2cab5fc46caa3ef8a85698b4c92260405160405180910390a36000151561094284610daa565b151514151561095057600080fd5b61095a8383610f32565b151561096557600080fd5b61096d610d5a565b90506109856001600354610fbf90919063ffffffff16565b600381905550600180600085815260200190815260200160002060010160006101000a81548160ff0219169083151502179055503373ffffffffffffffffffffffffffffffffffffffff166108fc829081150290604051600060405180830381858888f1935050505015156109f957600080fd5b823373ffffffffffffffffffffffffffffffffffffffff167f044838236845b7a22c1f05ca45187b45a2d76d63beb0f1634a59ea6e888810f960405160405180910390a3505050565b6000610a5b600354600254610fdd90919063ffffffff16565b905090565b6000809054906101000a900473ffffffffffffffffffffffffffffffffffffffff1673ffffffffffffffffffffffffffffffffffffffff163373ffffffffffffffffffffffffffffffffffffffff16141515610abb57600080fd5b600060149054906101000a900460ff161515610ad657600080fd5b60008060146101000a81548160ff0219169083151502179055507f7805862f689e2f13df9f062ff482ad3ad112aca9e0847911ed832e158c525b3360405160405180910390a1565b60016020528060005260406000206000915090508060000154908060010160009054906101000a900460ff16905082565b6000809054906101000a900473ffffffffffffffffffffffffffffffffffffffff1673ffffffffffffffffffffffffffffffffffffffff163373ffffffffffffffffffffffffffffffffffffffff16141515610baa57600080fd5b604080519081016040528082600019168152602001600015158152506001600060025481526020019081526020016000206000820151816000019060001916905560208201518160010160006101000a81548160ff0219169083151502179055509050506002547fb7aeae2f01fb40038c35eeac3606c0707403ac76e46aa35d1ade5cebd53aeb6560405160405180910390a2610c536001600254610fbf90919063ffffffff16565b60028190555050565b600060149054906101000a900460ff1681565b60035481565b6000809054906101000a900473ffffffffffffffffffffffffffffffffffffffff1673ffffffffffffffffffffffffffffffffffffffff163373ffffffffffffffffffffffffffffffffffffffff16141515610cd057600080fd5b600060149054906101000a900460ff16151515610cec57600080fd5b6001600060146101000a81548160ff0219169083151502179055507f6985a02210a168e66602d3235cb6db0e70f92b3ba4d376a33c0f3d9434bff62560405160405180910390a1565b6000809054906101000a900473ffffffffffffffffffffffffffffffffffffffff1681565b600080610d65610a42565b90506000811115610da157610d9a813073ffffffffffffffffffffffffffffffffffffffff1631610ff690919063ffffffff16565b9150610da6565b600091505b5090565b60006001600083815260200190815260200160002060010160009054906101000a900460ff169050919050565b6000809054906101000a900473ffffffffffffffffffffffffffffffffffffffff1673ffffffffffffffffffffffffffffffffffffffff163373ffffffffffffffffffffffffffffffffffffffff16141515610e3257600080fd5b600073ffffffffffffffffffffffffffffffffffffffff168173ffffffffffffffffffffffffffffffffffffffff1614151515610e6e57600080fd5b8073ffffffffffffffffffffffffffffffffffffffff166000809054906101000a900473ffffffffffffffffffffffffffffffffffffffff1673ffffffffffffffffffffffffffffffffffffffff167f8be0079c531659141344cd1fd0a4f28419497f9722a3daafe3b4186f6b6457e060405160405180910390a3806000806101000a81548173ffffffffffffffffffffffffffffffffffffffff021916908373ffffffffffffffffffffffffffffffffffffffff16021790555050565b60025481565b6000816040518082805190602001908083835b602083101515610f6a5780518252602082019150602081019050602083039250610f45565b6001836020036101000a03801982511681845116808217855250505050505090500191505060405180910390206000191660016000858152602001908152602001600020600001546000191614905092915050565b6000808284019050838110151515610fd357fe5b8091505092915050565b6000828211151515610feb57fe5b818303905092915050565b600080828481151561100457fe5b0490508091505092915050565b6020604051908101604052806000815250905600a165627a7a72305820fc575a1325b3eea399980bcb5a137f77ac02cc109f59f3c6f5fdd0b160f072a20029",
  "source": "pragma solidity 0.4.21;\nimport \"zeppelin-solidity/contracts/math/SafeMath.sol\";\nimport \"zeppelin-solidity/contracts/lifecycle/Pausable.sol\";\nimport \"zeppelin-solidity/contracts/token/ERC20/StandardToken.sol\";\n\n\n// TODO: Explore possibility of retiring unclaimed chips\ncontract ChipTreasury is Pausable {\n  using SafeMath for uint256;\n\n  mapping(uint => Chip) public chips;\n  uint                  public numChipsMinted;\n  uint                  public numChipsClaimed;\n\n  struct Chip {\n    bytes32 hash;\n    bool claimed;\n  }\n\n  event Deposit(address indexed sender, uint value);\n  event Withdrawal(address indexed to, uint value);\n  event TokenWithdrawal(address indexed to, address indexed token, uint value);\n\n  event ChipMinted(uint indexed chipId);\n  event ChipClaimAttempt(address indexed sender, uint indexed chipId);\n  event ChipClaimSuccess(address indexed sender, uint indexed chipId);\n\n  function ChipTreasury () public {\n    paused = true;\n  }\n\n  function () public payable {\n    if (msg.value > 0) emit Deposit(msg.sender, msg.value);\n  }\n\n  function claimChip (uint chipId, string password) public whenNotPaused {\n    emit ChipClaimAttempt(msg.sender, chipId);\n    // 1. Conditions\n    require(isClaimed(chipId) == false);       // chip is unclaimed\n    require(isChipPassword(chipId, password)); // sender has chip password\n\n    // 2. Effects\n    uint chipValue = getChipValue();           // get chip value\n    numChipsClaimed = numChipsClaimed.add(1);  // increase claimed count\n    chips[chipId].claimed = true;              // mark chip as claimed\n\n    // 3. Interaction\n    msg.sender.transfer(chipValue);            // send ether to the sender\n    emit ChipClaimSuccess(msg.sender, chipId);\n  }\n\n  // NOTE: You must prefix hashes with '0x'\n  function mintChip (bytes32 hash) public onlyOwner {\n    chips[numChipsMinted] = Chip(hash, false);\n    emit ChipMinted(numChipsMinted);\n    numChipsMinted = numChipsMinted.add(1);\n  }\n\n  function withdrawFunds (uint value) public onlyOwner {\n    owner.transfer(value);\n    emit Withdrawal(owner, value);\n  }\n\n  function withdrawTokens (address token, uint value) public onlyOwner {\n    StandardToken(token).transfer(owner, value);\n    emit TokenWithdrawal(owner, token, value);\n  }\n\n  function isClaimed (uint chipId) public constant returns(bool) {\n    return chips[chipId].claimed;\n  }\n\n  function getNumChips () public constant returns(uint) {\n    return numChipsMinted.sub(numChipsClaimed);\n  }\n\n  function getChipIds (bool isChipClaimed) public constant returns(uint[]) {\n    uint[] memory chipIdsTemp = new uint[](numChipsMinted);\n    uint count = 0;\n    uint i;\n\n    // filter chips by isChipClaimed status\n    for (i = 0; i < numChipsMinted; i++) {\n      if (isChipClaimed == chips[i].claimed) {\n        chipIdsTemp[count] = i;\n        count += 1;\n      }\n    }\n\n    // return array of filtered chip ids\n    uint[] memory _chipIds = new uint[](count);\n    for (i = 0; i < count; i++) _chipIds[i] = chipIdsTemp[i];\n    return _chipIds;\n  }\n\n  function getChipValue () public constant returns(uint) {\n    uint numChips = getNumChips();\n    if (numChips > 0) return address(this).balance.div(numChips);\n    return 0;\n  }\n\n  function isChipPassword (uint chipId, string password) internal constant returns(bool) {\n    return chips[chipId].hash == keccak256(password);\n  }\n\n}\n",
  "sourcePath": "/Users/rongierlach/Development/nashcash/truffle/contracts/ChipTreasury.sol",
  "compiler": {
    "name": "solc",
    "version": "0.4.21+commit.dfe3193c.Emscripten.clang"
  },
  "schemaVersion": "2.0.0",
  "updatedAt": "2018-04-26T15:24:34.461Z"
}